:1070000055C0000086C0000084C0000082C000009F
:1070100080C000007EC000007CC000007AC000007C
:1070200078C0000076C0000044C2000072C00000BA
:1070300070C000006EC000006CC000006AC000009C
:1070400068C0000066C0000064C0000062C00000AC
:1070500060C000005EC000005CC0000007C100000E
:1070600058C0000056C0000054C0000052C00000CC
:1070700050C000004EC000004CC000004AC00000DC
:1070800048C0000046C0000044C0000042C00000EC
:1070900040C000003EC000003CC000003AC00000FC
:1070A00038C0000036C0000034C0000011241FBEEC
:1070B000CFEFDAE0DEBFCDBF20E030E0F90145914F
:1070C000549104B603FE10C080915601909157016F
:1070D00082349C4D49F44F3F5F4F31F0109257017D
:1070E00010925601F901099511E0A0E0B1E0E6E542
:1070F000F8E702C005900D92AA34B107D9F721E054
:10710000AAE4B1E001C01D92A635B207E1F702D0B2
:10711000A0C376CF84B7877F84BF0FB6F894A895B5
:1071200080916000886180936000109260000FBEC3
:1071300081E085BF92E095BF16BC95E095BD809338
:107140006E009AD184E690E090934B0180934A01BF
:10715000789480910001882311F062D3FACF809156
:10716000E00081608093E00082E49CED9093570101
:10717000809356019CE088E10FB6F894A89580931F
:1071800060000FBE90936000FFCF42E361EC81E0AE
:1071900007C180914E018F77813209F066C08091DE
:1071A0004F01893009F061C08091E800877F8093AA
:1071B000E8008091E80082FFFCCF3091F10020913F
:1071C000F100832F922F8F3F2FEF920719F4109227
:1071D000000145C024E630E030934B0120934A0182
:1071E00023E0FC0120935700E89507B600FCFDCF93
:1071F00040E050E061E07091F3002091F20030E057
:10720000372B232BD9F0E091F1007091F1002E2F54
:10721000372FFA01EE0FFF1FE80FF91F09016093E6
:107220005700E89511244F5F5F4F4034510519F71F
:1072300025E0FC0120935700E8950AC02091E80062
:107240002B772093E8002091E80022FFFCCFDBCFD2
:1072500007B600FCFDCF81E180935700E89580914F
:10726000E8008B778093E800AFC008951F920F92DB
:107270000FB60F9211248F939F9380914A019091A2
:107280004B01009731F0019790934B0180934A0195
:1072900002C0109200019F918F910F900FBE0F902E
:1072A0001F901895913049F0923061F0913279F049
:1072B00085E190E025E331E00EC082E190E023E239
:1072C00031E009C082E290E021E031E004C089E0D1
:1072D00090E023E131E0FA01318320830895209189
:1072E0005401309155012617370748F06115710593
:1072F00039F42091E8002E772093E80001C0B9010D
:1073000040E061157105A1F12EB3222309F442C0BA
:10731000253009F441C02091E80023FD3FC02091B1
:10732000E80022FD31C02091E80020FFEACF409123
:10733000F3002091F20030E0342BFC01CF01611505
:10734000710559F02830310540F481918093F100A6
:10735000615071092F5F3F4FF1CF41E02830310577
:1073600009F040E02091E8002E772093E800C9CF93
:107370004111CACF09C08EB3882361F0853061F016
:107380008091E80083FD0AC08091E80082FFF3CF7E
:1073900080E0089582E0089583E0089581E00895F3
:1073A0008F708093E900EBEEF0E080818160808354
:1073B000EDEEF0E010826093EC0040838091EE00EF
:1073C000881F8827881F089580914E0187FF0FC06E
:1073D0008091E80082FD04C08EB38111F9CF10C006
:1073E0008091E8008B770AC08EB3882349F08091A2
:1073F000E80080FFF9CF8091E8008E778093E80065
:1074000008950F931F93CF93DF9346D04DD0C8EDCF
:10741000D0E088818F77888388818068888388819D
:107420008F7D888319BC1EBA10924C0100EE10E0CB
:10743000F80180818B7F808388818160888342E02E
:1074400060E080E0ADDFE1EEF0E080818E7F808360
:10745000E2EEF0E0808181608083808188608083BB
:10746000F80180818E7F8083888180618883DF91AD
:10747000CF911F910F910895E8EDF0E080818F7E0C
:107480008083E7EDF0E080818160808384E082BFCB
:1074900081E080934D01B5CFE8EDF0E080818E7FF3
:1074A00080831092E20008951092DA001092E100B9
:1074B00008951F920F920FB60F9211242F933F93AE
:1074C0004F935F936F937F938F939F93AF93BF93EC
:1074D000EF93FF938091DA0080FF1BC08091D8006A
:1074E00080FF17C08091DA008E7F8093DA00809150
:1074F000D90080FF0BC080E189BD82E189BD09B45C
:1075000000FEFDCF81E08EBB8AD103C019BC1EBA3C
:1075100086D18091E10080FF17C08091E20080FF5A
:1075200013C08091E2008E7F8093E2008091E200A0
:1075300080618093E2008091D80080628093D800BF
:1075400019BC85E08EBB6BD18091E10084FF2EC019
:107550008091E20084FF2AC080E189BD82E189BD7B
:1075600009B400FEFDCF8091D8008F7D8093D800B4
:107570008091E1008F7E8093E1008091E2008F7E18
:107580008093E2008091E20081608093E20080912C
:107590004C01882311F084E007C08091E30087FD4F
:1075A00002C081E001C083E08EBB39D18091E1004F
:1075B00083FF21C08091E20083FF1DC08091E10024
:1075C000877F8093E10082E08EBB10924C01809116
:1075D000E1008E7F8093E1008091E2008E7F8093B6
:1075E000E2008091E20080618093E20042E060E08E
:1075F00080E0D6DE14D1FF91EF91BF91AF919F91C2
:107600008F917F916F915F914F913F912F910F904B
:107610000FBE0F901F9018951F93CF93DF9300D04C
:10762000CDB7DEB7EEE4F1E088E08E0F9091F10087
:1076300091938E13FBCFADDD8091E80083FFDBC01B
:1076400080914E0190914F01953009F466C030F45D
:10765000913059F168F0933041F1CDC0983009F480
:107660009DC0993009F4ACC0963009F0C4C076C012
:10767000803881F0823809F0BEC0809152018F704D
:107680008093E9008091EB0085FB882780F91092B8
:10769000E90001C080E09091E800977F9093E800B6
:1076A0008093F1001092F10084C0282F2D7F09F003
:1076B000A2C0823009F09FC080915001811127C083
:1076C000809152018F7009F496C08093E900209157
:1076D000EB0020FF1CC0933021F48091EB0080620E
:1076E00014C09091EB0090619093EB0021E030E0AA
:1076F000A90102C0440F551F8A95E2F74093EA00A2
:107700001092EA008091EB0088608093EB00109269
:10771000E9008091E800877F4FC081116CC0109113
:1077200050011F778091E3008078812B8093E300E4
:107730008091E800877F8093E80046DE8091E80032
:1077400080FFFCCF8091E30080688093E3001111FB
:1077500002C082E001C083E08EBB4DC08058823001
:1077600008F049C0AE014F5F5F4F609152018091B8
:1077700050019091510196DDBC01892B09F43BC069
:107780009091E800977F9093E80089819A81A7DD26
:107790008091E8008B778093E8002DC0803859F500
:1077A0008091E800877F8093E80080914C0180936E
:1077B000F1008091E8008E778093E80005DE1BC021
:1077C000811119C0909150019230A8F48091E80085
:1077D000877F8093E80090934C01F6DD80914C0107
:1077E000811106C08091E30087FD02C081E001C0E5
:1077F00084E08EBBCADC8091E80083FF0AC08091E0
:10780000E800877F8093E8008091EB00806280939E
:10781000EB000F900F90DF91CF911F910895089585
:10782000CF938EB3882399F0C091E900CF709091E7
:10783000EC00892F817090FD80E8C82B1092E90040
:107840008091E80083FDE8DECF70C093E900CF911E
:067850000895F894FFCF3B
:10785600010902220001010080320904000001032F
:10786600000000092111010001221500070581030E
:107876004000051201100100000008BA153B000186
:10788600000000000106DCFF09FBA101090215004A
:0A78960025FF75089682009102C0DC
:040000030000700089
:00000001FF
