:10000000E7C0000001C10000FFC00000E9C6000019
:10001000FBC00000F9C00000F7C00000F5C0000000
:10002000F3C00000F1C000000C94F70AEDC000001E
:10003000EBC00000E9C00000E7C00000E5C0000020
:10004000E3C00000E1C00000DFC00000DDC0000030
:10005000DBC00000D9C00000D7C0000016C70000F8
:10006000D3C00000D1C00000CFC00000CDC0000050
:10007000CBC000007AC60000C7C00000C5C00000A9
:10008000C3C00000C1C00000BFC00000BDC0000070
:10009000BBC00000B9C00000B7C00000B5C0000080
:1000A000B3C00000B1C00000AFC000003003540076
:1000B000450052004500530020004B0065007900C8
:1000C00062006F006100720064002B0054006F003A
:1000D0007500630068007000610064000000180390
:1000E0004F006C0069006D006500780020004C0036
:1000F000740064002E0000000403090409023B00A0
:10010000020100C0320904000001030101000921BD
:1001100011010001223F00070585030800050904BD
:100120000100010301020009211101000122480020
:10013000070581030800051201100100000008BA3C
:10014000153C0001000102DC0105010906A10105C1
:100150000719E029E7150025017501950881029529
:100160000175088101050819012905950575019199
:1001700002950175039101150025FF050719002956
:10018000FF950675088100C005010902A10109015A
:10019000A100050919012903150025019503750121
:1001A0008102950175058101050109300931169C0F
:1001B000FF266400369CFF466400950275088106A0
:1001C00009381581257F35FF450175088106C0C0B6
:1001D00011241FBECFEFDAE0DEBFCDBF13E0A0E0F9
:1001E000B1E0ECEBFFE102C005900D92AA3DB10732
:1001F000D9F724E0AAEDB3E001C01D92A233B20703
:10020000E1F78ED00C94DC0FFBCE2091200430E07F
:1002100097FF0CC044275527481B590B2417350757
:100220004CF488279927821B930B089528173907C8
:100230000CF4C90108950E94820AF8942FEF83ED0F
:1002400090E3215080409040E1F700C000009CE026
:1002500088E10FB6F894A895809360000FBE909344
:100260006000FFCF81E08093DE0384E180931F0470
:100270000895CF9384B7877F84BF0FB6F894A8956D
:1002800080916000886180936000109260000FBED2
:1002900090E080E80FB6F89480936100909361003D
:1002A0000FBECFEFC4B9C5B91AB88CEF8BB917B868
:1002B00080EC88B91DB884E48EB910BA82EF81BB96
:1002C000ECEBF0E080818460808391E09093B90052
:1002D00088E48093B800EAE7F0E087EA80838081D1
:1002E0008860808315BEEA9A8098AEE7B0E08C9172
:1002F00081608C9380E680937C00ABE7B0E08C91CA
:100300008F7D8C9380818064808316BC85E085BD61
:1003100090936E000E94DA0AC093E103CF91089592
:10032000A8DF7894CFEF1DEF0FEF8EEFF82EDFEB05
:1003300080E191E00E947B0E1DB8CEB915B9C4B919
:1003400080E091E00E947B0E0E94150D6299F0CF33
:1003500004B9F5B88FE39CE90197F1F700C00000FC
:100360003799E6CFD5B98FE39CE90197F1F700C043
:1003700000004C99DDCF5FDF0895089580E191E0A2
:100380000E94680E80E091E00E94680EE2EEF0E0CC
:10039000808184608083089580E191E00E942F0D28
:1003A00080E091E00C942F0D80911E0190911F012F
:1003B000009729F0019790931F0180931E0180916F
:1003C0000E0190910F01009729F0019790930F0172
:1003D00080930E0108952F923F924F925F926F92F9
:1003E0007F928F929F92AF92BF92CF92DF92EF92C5
:1003F000FF920F931F93CF93DF931F92CDB7DEB77A
:10040000290121E08031920709F08FC310921E0468
:10041000D2011C9212961C92129713961C9213975B
:1004200014961C92149715961C92159716961C926A
:10043000169717961C928091DA0381111092DA03B5
:100440001DB810BA17B81AB88CEF8BB98FEF8EB9E8
:1004500081BB88B984B91092240480E090E160E403
:1004600066246A947CEFBEE37B2E20E8822E30EE79
:10047000932E44EEA42EE5EE50E5B52EF1EEA2E566
:10048000CA2EBAE43B2E2BE4222EDD24D3942091F5
:100490002404283008F03EC32111EDC0F89414B8AC
:1004A00015B89AB99BB9AFE3BFE11197F1F700C056
:1004B00000001E9B46C0189B0DC080911E04920137
:1004C000280F311DD90112962C92853018F48F5FB8
:1004D00080931E04199B11C0D2018C9182608C9371
:1004E00080911E049201280F311DD9011296FC93B0
:1004F000853018F48F5F80931E041D9B0DC0809182
:100500001E049201280F311DD90112963C928530AC
:1005100018F48F5F80931E041F9B11C0D2018C9131
:1005200080628C9380911E049201280F311DD901A5
:100530001296EC93853018F48F5F80931E0480E749
:1005400044C0189B0DC040911E049201240F311D20
:10055000D9011296CC92453018F44F5F40931E0497
:10056000199B11C0D2012C9122602C9340911E0442
:100570009201240F311DD9011296FC93453018F4D5
:100580004F5F40931E041D9B0DC040911E049201BD
:10059000240F311DD9011296BC92453018F44F5FDB
:1005A00040931E041F9B11C0D2012C9120622C93FA
:1005B00040911E049201240F311DD9011296EC9333
:1005C000453018F44F5F40931E046AB96BB914B8F4
:1005D00015B8AFE3BFE11197F1F700C000001C9B15
:1005E00011C0D2012C9120612C9340911E049201E4
:1005F000240F311DD9011296AC92453018F44F5F8B
:1006000040931E041E9B11C0D2012C9121602C939B
:1006100040911E049201240F311DD90112969C9223
:10062000453018F44F5F40931E041B9B12C040914D
:100630001E049201240F311DD901803719F412963E
:100640008C9202C012967C92453018F44F5F409312
:100650001E042091240430E02E5C3E4FD9012C91E1
:1006600025B964B81AB87BB9AFEDBEE21197F1F7BE
:1006700000C0000078942091240430E02E5C3E4FAE
:10068000D9012C9125B920912404422F50E04E5CD1
:100690005E4FDA013C9143B14313FDCF379939C026
:1006A000BEE02B9F900111242F5F3F4F482F50E059
:1006B0007901E40EF51EEE0CFF1CD701A65EBD4FBE
:1006C000FC90220F331F265C3E4FD201EC90D901E3
:1006D0002C912E29D2012C93FF20D9F0F0901E04EA
:1006E000E090240492012F0D311DBEE0EB9E400DE1
:1006F000511D1124440F551F445E5D4FDA014C918A
:10070000D90112964C93B4E0BF1518F0F394F0920F
:100710001E0436992BC0209124044EE0249F9001A2
:1007200011242E5F3F4FA901480F511D440F551F43
:10073000465E5D4FDA015C91220F331F265C3E4F0F
:10074000D2014C91D9012C91242BD2012C93552309
:1007500069F040911E049201240F311DD9011296B7
:100760005C93453018F44F5F40931E044F9935C099
:1007700020912404BEE02B9F900111242D5F3F4F58
:10078000A901480F511D440F551F465E5D4FDA0108
:100790005C91220F331F265C3E4FD2014C91D90150
:1007A0002C91242BD2012C93573CA9F42091DF03E8
:1007B0002D252093DF034F9BFECF40911E04920115
:1007C000240F311DD90112965C93453030F44F5FF0
:1007D00040931E0402C05111F0CF4B992BC02091C1
:1007E0002404BEE02B9F900111242C5F3F4FA901F0
:1007F000480F511D440F551F465E5D4FDA015C9155
:10080000220F331F265C3E4FD2014C91D9012C910F
:10081000242BD2012C93552369F040911E049201A0
:10082000240F311DD90112965C93453018F44F5FA7
:1008300040931E0479992BC020912404BEE02B9F85
:10084000900111242B5F3F4FA901480F511D440F08
:10085000551F465E5D4FDA015C91220F331F265C07
:100860003E4FD2014C91D9012C91242BD2012C93D3
:10087000552369F040911E049201240F311DD901C6
:1008800012965C93453018F44F5F40931E047E9996
:100890002BC020912404BEE02B9F900111242A5FDD
:1008A0003F4FA901480F511D440F551F465E5D4F34
:1008B000DA015C91220F331F265C3E4FD2014C912E
:1008C000D9012C91242BD2012C93552369F040910E
:1008D0001E049201240F311DD90112965C934530FC
:1008E00018F44F5F40931E0466992BC02091240496
:1008F000BEE02B9F90011124295F3F4FA901480FB3
:10090000511D440F551F465E5D4FDA015C91220F69
:10091000331F265C3E4FD2014C91D9012C91242BE0
:10092000D2012C93552369F040911E049201240FAB
:10093000311DD90112965C93453018F44F5F4093F6
:100940001E047C992BC020912404BEE02B9F9001B3
:100950001124285F3F4FA901480F511D440F551F17
:10096000465E5D4FDA015C91220F331F265C3E4FDD
:10097000D2014C91D9012C91242BD2012C935523D7
:1009800069F040911E049201240F311DD901129685
:100990005C93453018F44F5F40931E044D992BC073
:1009A00020912404BEE02B9F90011124275F3F4F2C
:1009B000A901480F511D440F551F465E5D4FDA01D6
:1009C0005C91220F331F265C3E4FD2014C91D9011E
:1009D0002C91242BD2012C93552369F040911E04B5
:1009E0009201240F311DD90112965C93453018F401
:1009F0004F5F40931E047D992BC020912404BEE0DC
:100A00002B9F90011124265F3F4FA901480F511DD4
:100A1000440F551F465E5D4FDA015C91220F331F74
:100A2000265C3E4FD2014C91D9012C91242BD2014E
:100A30002C93552369F040911E049201240F311D1F
:100A4000D90112965C93453018F44F5F40931E0411
:100A50007F992BC020912404BEE02B9F900111248C
:100A6000255F3F4FA901480F511D440F551F465E9A
:100A70005D4FDA015C91220F331F265C3E4FD2019D
:100A80004C91D9012C91242BD2012C93552369F040
:100A900040911E049201240F311DD90112965C93DE
:100AA000453018F44F5F40931E0462992BC020918B
:100AB0002404BEE02B9F90011124245F3F4FA90125
:100AC000480F511D440F551F465E5D4FDA015C9182
:100AD000220F331F265C3E4FD2014C91D9012C913D
:100AE000242BD2012C93552369F040911E049201CE
:100AF000240F311DD90112965C93453018F44F5FD5
:100B000040931E041AB87BB9209124042F5F2093D0
:100B10002404BDCCF2018081811104C080911E04A7
:100B20008111A0DB88E090E006C18050914009F07F
:100B300007C1109211041092100410922204109216
:100B4000210410921904909116048091DC03892BE2
:100B5000809316048091E203882309F4DBC0C090DF
:100B6000F303D12CDC2CCC248091F403C82AE09030
:100B7000F503F12CFE2CEE248091F603E82A209157
:100B8000F203213099F120F0223009F47CC0B3C087
:100B900080911804882339F180912304843008F16E
:100BA000809115048830E8F4409120015091210192
:100BB0008091220190912301840F951F8C199D092A
:100BC0008E199F09873FEFEF9E075CF00A974CF460
:100BD00080911404882311F082E001C081E08093A9
:100BE000DB03109223041092200485C098E09093B8
:100BF0001A0480911804813039F018F0823019F10C
:100C000025C090931D041FC0809127019091280159
:100C1000009741F1A601481B590BCA012983F5DA57
:100C200090932204809321048091250190912601C4
:100C3000D701A81BB90BCD01E8DA9093110480937A
:100C4000100429810FC01092200402C0813051F09D
:100C500010921704D0922301C0922201F092210138
:100C6000E0922001D0922801C0922701F092260143
:100C7000E092250180912004803809F444C08C5F03
:100C80008093200440C080911804811104C088E042
:100C900080931A041DC08230D9F48091250190916F
:100CA0002601A7014B5F5F4F4817590710F481E0F9
:100CB00005C005968E159F0518F48FEF80931904D3
:100CC0008091190481111092230410921D040AC00E
:100CD00010921404D0922301C0922201F0922101BB
:100CE000E0922001D0922801C0922701F0922601C3
:100CF000E092250108C0109228011092270110925D
:100D0000260110922501209318041092E20381E03D
:100D10008093DA0380911004F20182838091210490
:100D200081838091160480838091190483831092BB
:100D3000160484E090E0D8018D939C9381E000C07C
:100D40000F90DF91CF911F910F91FF90EF90DF9067
:100D5000CF90BF90AF909F908F907F906F905F905B
:100D60004F903F902F90089508951F920F920FB6C5
:100D70000F9211242F933F934F935F938F93809102
:100D80007A00806180937A00809179008093E103FA
:100D9000282F30E040911204509113042417350796
:100DA00089F4883E60F4853910F082E005C0893707
:100DB00010F081E001C084E08093DC0307C0109252
:100DC000DC0304C030931304209312048F915F91CD
:100DD0004F913F912F910F900FBE0F901F9018953C
:100DE0001F920F920FB60F9211242F933F934F93A0
:100DF0005F936F937F938F939F93AF93BF93CF93A3
:100E0000DF93EF93FF936AE088E40E943E0F811125
:100E10001BC00E94920F84E98093BC006AE089E4C1
:100E20000E943E0F811110C0C0EFD3E060E0CE0100
:100E30000E94A30F219683E0C63FD807B9F761E06F
:100E400086EF93E00E94A30F84E98093BC00809119
:100E5000DF03811107C08091DE03811103C081E0AF
:100E60008093E203FF91EF91DF91CF91BF91AF911A
:100E70009F918F917F916F915F914F913F912F91B2
:100E80000F900FBE0F901F9018951F920F920FB6E4
:100E90000F9211242F933F934F935F936F937F9300
:100EA0008F939F93AF93BF93CF93DF93EF93FF9372
:100EB0006AE088E4E3D781111AC00E94920F84E9A6
:100EC0008093BC006AE089E4D9D7811110C0C0EFDB
:100ED000D3E060E0CE010E94A30F219683E0C63FDD
:100EE000D807B9F761E086EF93E00E94A30F84E989
:100EF0008093BC008091DF0381110BC08091DE03E1
:100F0000811107C08091F003882319F081E080935C
:100F1000E203809123048F3F39F09091F203911105
:100F200003C08F5F8093230480912304883061F491
:100F30008091DB03809316041092DB031092170458
:100F40001092140410921504809117048F3F39F009
:100F50009091F203913019F48F5F80931704809180
:100F600014048F3F39F09091F203923019F48F5F9F
:100F70008093140480911B04882319F0815080937E
:100F80001B0480911C04882319F0815080931C0459
:100F900080911D04882319F0815080931D04809155
:100FA0001F04882319F0815080931F0480911F042F
:100FB000813011F41092DE0380911A04882319F015
:100FC000815080931A0480911A048130A9F480938F
:100FD00029011092280110922701109226011092E7
:100FE00025011092E00390911D04992319F080933C
:100FF000E20302C010921804FF91EF91DF91CF91AC
:10100000BF91AF919F918F917F916F915F914F9120
:101010003F912F910F900FBE0F901F901895292F81
:10102000332723303105C9F064F42130310581F0D4
:101030002230310509F042C08BE390E02CEF30E024
:1010400041C021323105F1F02232310549F136C07B
:1010500082E190E027E331E035C0992781309105A6
:1010600041F08230910541F0892B41F5E8EFF0E045
:1010700005C0EEEDF0E002C0ECEAF0E0849190E013
:101080009F0120C0662339F06130C1F489E090E00F
:1010900027E231E017C089E090E02EE031E012C095
:1010A000662339F0613051F488E490E028E831E0BB
:1010B00009C08FE390E029E431E004C080E090E0D3
:1010C00020E030E0FA01318320830895CF92DF924F
:1010D000EF92FF920F931F93CF93DF93EC018B015D
:1010E0007A01DED1811133C0E114F10439F0F70146
:1010F00080819181081B190BC80FD91FC12CD12CDD
:101100000115110519F18091E80085FD16C0809147
:10111000E8008E778093E80088D4E114F10449F068
:10112000F70180819181C80ED91ED182C08285E0ED
:101130000EC0B6D1882321F30AC089918093F100B3
:1011400001501109FFEFCF1ADF0ADACF80E0DF91FB
:10115000CF911F910F91FF90EF90DF90CF90089566
:1011600020913004309131042617370748F061157B
:10117000710539F42091E8002E772093E80001C032
:10118000B90140E061157105A9F1209129042223DC
:1011900009F443C0253009F442C02091E80023FD42
:1011A00040C02091E80022FD32C02091E80020FFDD
:1011B000E9CF4091F3002091F20030E0342BFC01A4
:1011C000CF016115710559F02830310540F4819146
:1011D0008093F100615071092F5F3F4FF1CF41E0E3
:1011E0002830310509F040E02091E8002E77209367
:1011F000E800C8CF4111C9CF0AC0809129048823D3
:1012000061F0853061F08091E80083FD0AC0809133
:10121000E80082FFF2CF80E0089582E0089583E045
:10122000089581E008956115710529F42091E80081
:101230002B772093E800FC016115710541F1809145
:101240002904882361F1853061F18091E80083FDF4
:1012500024C08091E80082FFEFCF2091F3008091BD
:10126000F20090E0922B892B31F08091F100819374
:101270006150710991F78091E8008B778093E800C5
:10128000DBCF80912904882351F0853051F0809183
:10129000E80080FFF6CF80E0089581E0089582E0C5
:1012A000089583E008952091300430913104261789
:1012B000370748F06115710539F42091E8002E7761
:1012C0002093E80001C0B901FC0120E0611571051F
:1012D00091F180912904882309F440C0853009F4F4
:1012E0003FC08091E80083FD3DC08091E80082FD11
:1012F0002FC08091E80080FFE9CF2091F30080911A
:10130000F20090E0922B6115710559F0883091053B
:1013100040F424912093F1003196615071090196B7
:10132000F2CF21E0089709F020E08091E8008E7765
:101330008093E800CBCF2111CCCF0AC08091290443
:10134000882361F0853061F08091E80083FD0AC058
:101350008091E80082FFF2CF80E0089582E0089556
:1013600083E0089581E00895982F973058F5909381
:10137000E900981739F07091EC002091ED00509140
:10138000F00003C0242F762F50E021FF19C03091C8
:10139000EB003E7F3093EB003091ED003D7F3093CA
:1013A000ED003091EB0031603093EB007093EC0076
:1013B0002093ED005093F0002091EE0027FF07C02E
:1013C0009F5FD3CF8F708093E90081E0089580E024
:1013D0000895EF92FF920F931F93CF93DF93E62E22
:1013E000EC018C010C5F1F4FF12CFE1491F1588120
:1013F000552351F1F801208169817A8131979081DB
:10140000852F8F70873010F080E024C0223010F4D8
:1014100042E001C046E0E8E0F0E020E0E617F70730
:1014200020F42F5FEE0FFF1FF9CF2295207F422B74
:10143000F0E49F9F90011124551F5527551F652FDC
:10144000622B92DF882301F3F39425960B5F1F4FE5
:10145000CCCF81E0DF91CF911F910F91FF90EF9062
:10146000089580912A0487FF11C08091E80082FDD1
:1014700005C0809129048111F8CF11C08091E80046
:101480008B770BC080912904882349F08091E80074
:1014900080FFF8CF8091E8008E778093E800089570
:1014A0002091E4003091E50095E64091EC00842F16
:1014B000817040FF22C08091E80080FD1CC08091B7
:1014C0002904882391F0853091F08091EB0085FD0F
:1014D00010C04091E4005091E5004217530729F3F2
:1014E0009A01915011F784E0089582E0089583E015
:1014F000089581E0089580E008954091E80042FF5A
:10150000DECF089567D06ED0E0EEF0E0808181609C
:101510008083E8EDF0E080818F77808319BCA7EDB0
:10152000B0E08C918E7F8C9380818F7E808310922F
:10153000280408950F931F93CF93DF934BD052D07D
:10154000C8EDD0E088818F77888388818068888320
:1015500088818F7D888319BC1092290410922504FC
:10156000109227041092260400EE10E0F80180810A
:101570008B7F808388818160888342E060E080E0A7
:10158000F3DEE1EEF0E080818E7F8083E2EEF0E03A
:10159000808181608083808188608083F801808180
:1015A0008E7F8083888180618883DF91CF911F91B6
:1015B0000F910895E8EDF0E080818F7E8083E7ED64
:1015C000F0E080818160808384E082BF81E080934D
:1015D0002804B0CFE8EDF0E080818E7F8083109208
:1015E000E20008951092DA001092E10008951F922F
:1015F0000F920FB60F9211242F933F934F935F9347
:101600006F937F938F939F93AF93BF93EF93FF93CA
:101610008091E10082FF0BC08091E20082FF07C051
:101620008091E1008B7F8093E1000E94D401809142
:10163000DA0080FF1FC08091D80080FF1BC080911E
:10164000DA008E7F8093DA008091D90080FF0DC090
:1016500080E189BD82E189BD09B400FEFDCF81E052
:10166000809329040E94BC0105C019BC1092290472
:101670000E94BD018091E10080FF18C08091E200CE
:1016800080FF14C08091E2008E7F8093E200809101
:10169000E20080618093E2008091D80080628093B4
:1016A000D80019BC85E080932904BED18091E10067
:1016B00084FF2FC08091E20084FF2BC080E189BDB0
:1016C00082E189BD09B400FEFDCF8091D8008F7DF5
:1016D0008093D8008091E1008F7E8093E10080911B
:1016E000E2008F7E8093E2008091E200816080932F
:1016F000E20080912504882311F084E007C08091E6
:10170000E30087FD02C081E001C083E080932904EB
:101710008BD18091E10083FF22C08091E20083FFA2
:101720001EC08091E100877F8093E10082E080937A
:101730002904109225048091E1008E7F8093E100BE
:101740008091E2008E7F8093E2008091E2008061D0
:101750008093E20042E060E080E006DE65D1FF9128
:10176000EF91BF91AF919F918F917F916F915F9119
:101770004F913F912F910F900FBE0F901F90189592
:101780001F93CF93DF93CDB7DEB7AA970FB6F89428
:10179000DEBF0FBECDBFEAE2F4E088E08E0F90918D
:1017A000F10091938E13FBCF0E94CC018091E80051
:1017B00083FF22C180912A0490912B04953009F473
:1017C00078C030F4913081F168F0933069F114C140
:1017D000983009F4E2C0993009F4F1C0963009F06C
:1017E0000BC189C0803881F0823809F005C1809131
:1017F0002E048F708093E9008091EB0085FB882791
:1018000080F91092E90006C0809126049091270487
:10181000911182609091E800977F9093E800809307
:10182000F1001092F100C4C0282F2D7F09F0E4C010
:10183000882319F0823061F0DFC080912C04813060
:1018400009F0DAC0933009F080E0809327042BC0C0
:1018500080912C04811127C080912E048F7009F48F
:10186000CBC08093E9002091EB0020FF1CC0933097
:1018700021F48091EB00806214C09091EB009061A4
:101880009093EB0021E030E0A90102C0440F551F06
:101890008A95E2F74093EA001092EA008091EB000B
:1018A00088608093EB001092E9008091E800877FC8
:1018B00082C08111A1C010912C041F778091E30098
:1018C0008078812B8093E3008091E800877F80936C
:1018D000E800C7DD8091E80080FFFCCF8091E30045
:1018E00080688093E300111102C082E001C083E0B0
:1018F0008093290481C08058823008F07DC0809197
:101900002C0490912D048C3D53E0950771F583E0F4
:101910008A838AE289834FB7F894DE01139620E028
:101920003EE051E2E32FF0E050935700E49120FFB6
:1019300003C0E295EF703F5FEF708E2F90E0EA30CA
:1019400010F0C79601C0C0968D939D932F5F2431F0
:1019500049F74FBF8091E800877F8093E8006AE2F3
:1019600070E0CE010196FCDB12C0AE014F5F5F4F0D
:1019700060912E0454DBBC01892B09F43DC0909189
:10198000E800977F9093E80089819A818CDC8091B0
:10199000E8008B778093E8002FC0803869F580914C
:1019A000E800877F8093E800809125048093F10010
:1019B0008091E8008E778093E80053DD1DC081118F
:1019C0001BC090912C049230B8F48091E800877F7E
:1019D0008093E8009093250444DD809125048111D3
:1019E00006C08091E30087FD02C081E001C084E071
:1019F000809329040E94BE018091E80083FF0AC001
:101A00008091E800877F8093E8008091EB008062FE
:101A10008093EB00AA960FB6F894DEBF0FBECDBF41
:101A2000DF91CF911F9108950895CF93809129045C
:101A3000882399F0C091E900CF709091EC00892F34
:101A4000817090FD80E8C82B1092E9008091E80039
:101A500083FD96DECF70C093E900CF9108956F9219
:101A60007F928F929F92AF92BF92CF92DF92EF922E
:101A7000FF920F931F93CF93DF9300D01F92CDB7A8
:101A8000DEB77C01CDB6DEB68091E80083FF09C1E8
:101A9000F701808190E020912E0430912F042817C7
:101AA000390709F0FEC080912B04833009F4A0C0EF
:101AB00030F4813071F0823009F4D7C0F2C08A303E
:101AC00009F4BBC08B3009F4A4C0893009F0E9C027
:101AD00052C080912A04813A09F0E3C08DB69EB6C7
:101AE0001A82198280912C0410912D048B83F701A6
:101AF0008085482F50E08DB79EB7841B950B0FB69D
:101B0000F8949EBF0FBE8DBFEDB7FEB731965F0153
:101B100060E070E0CF0149D24FEF410F8E010F5FBF
:101B20001F4F9501BE016D5F7F4FC7010E94EB0102
:101B3000F70186819781009721F0408550E0B5013B
:101B40002BD21092E9008091E800877F8093E80013
:101B50008B8181118093F10069817A81C50100DB5D
:101B60008091E8008B778093E8000FB6F8949EBED2
:101B70000FBE8DBE96C080912A04813209F091C0BB
:101B8000ADB6BEB6009130041091310470902C04B3
:101B900060902D048DB79EB7801B910B0FB6F89403
:101BA0009EBF0FBE8DBFEDB7FEB731964F0180913E
:101BB000E800877F8093E800B801CF0134DB809193
:101BC000E8008E778093E80021E0711001C020E0EA
:101BD00030E0021B130B280D391D4FEF460D672D0A
:101BE000C701C2D80FB6F894BEBE0FBEADBE59C075
:101BF00080912A04813A09F054C08091E800877FDF
:101C00008093E8008091E80080FFFCCFF701818598
:101C100040C080912A04813209F043C08091E800DD
:101C2000877F8093E8001DDC90912C0481E0911166
:101C300001C080E0F701818734C080912A0481329D
:101C400081F58091E800877F8093E8000ADC80912D
:101C50002C0490912D04882736E0969587953A9527
:101C6000E1F7F701958784871CC080912A04813AA7
:101C7000C1F48091E800877F8093E8008091E800BC
:101C800080FFFCCFF701848595859695879596957D
:101C900087958093F1008091E8008E778093E8002B
:101CA000E0DB0FB6F894DEBE0FBECDBE0F900F90F6
:101CB0000F90DF91CF911F910F91FF90EF90DF90E8
:101CC000CF90BF90AF909F908F907F906F9008952E
:101CD000FC01399627E0DF011D922A95E9F721E002
:101CE000FC01218724EF31E03587248723E024831A
:101CF00061E001966ECB4F925F926F927F928F92CE
:101D00009F92AF92BF92CF92DF92EF92FF920F938A
:101D10001F93CF93DF9300D01F92CDB7DEB77C0126
:101D2000ADB6BEB680912904843009F08EC0809192
:101D3000E4009091E500F7012285338528173907E3
:101D400009F483C081818F708093E9008091E8005D
:101D500085FF7BC08DB69EB6408550E08DB79EB79F
:101D6000841B950B0FB6F8949EBF0FBE8DBFEDB7C9
:101D7000FEB731966F011B821A82198260E070E013
:101D8000CF0113D18E010F5F1F4F960140E0BE01BE
:101D90006D5F7F4FC7010E94EB01482EF7018485DC
:101DA0009585892B51F091E080E026853785232B9E
:101DB00009F090E0092F182F02C000E010E0F701B1
:101DC000668077806114710489F049815A81B3017A
:101DD000C601D5D055245394892B09F4512CF70111
:101DE000408550E0B601C301D7D001C0512C898194
:101DF0009A81892BF1F0411004C0511002C0012BCF
:101E0000C1F0F701848595859787868781818F70DA
:101E10008093E9008B8181118093F10069817A813F
:101E200040E050E0C60152D98091E8008E7780935F
:101E3000E8008091E4009091E500F70193878287A4
:101E40000FB6F8949EBE0FBE8DBE0FB6F894BEBE00
:101E50000FBEADBE0F900F900F90DF91CF911F91ED
:101E60000F91FF90EF90DF90CF90BF90AF909F9039
:101E70008F907F906F905F904F90089594EA909329
:101E8000BC0094E6699FB00111249B0140E054EA34
:101E900021153105F9F0411122C09091BC0097FF46
:101EA00012C09091B900987F903161F0983339F069
:101EB000983041F084E08093BC0081E00895509315
:101EC000BC00E6CF41E095E39A95F1F70000215080
:101ED0003109DECF84E08093BC0082E008958093D6
:101EE000BB0084E88093BC006115710559F08091B6
:101EF000BC0087FD09C085E38A95F1F700006150B9
:101F00007109F2CF83E008958091B900887F88310C
:101F100011F480E008958034E1F384E98093BC00FB
:101F200084E008958093BB0084E88093BC00809196
:101F3000BC0087FFFCCF9091B900987F81E0983278
:101F400009F080E00895FC01611102C094EC01C029
:101F500094E89093BC008091BC0087FFFCCF8091F7
:101F6000BB0080839091B900987F81E0662319F0CF
:101F7000983519F403C0903509F080E00895FB010D
:101F8000DC0104C08D910190801921F44150504032
:101F9000C8F7881B990B0895FB01DC0102C0019072
:101FA0000D9241505040D8F70895DC0101C06D9367
:0C1FB00041505040E0F70895F894FFCF36
:101FBC00018108000001E40304000000000000009F
:101FCC00008508000001E803080000000000000084
:101FDC00FFFFFFFF01FFFFFFFF0140028001102008
:101FEC000408BFFD7FFEEFDFFBF7010000000000DF
:101FFC0000000000000000000000000000000000D5
:10200C0000000000000000000000000000000000C4
:10201C0000000000000000000000000000000800AC
:10202C0002000000000000000000000000000000A2
:10203C000000000000000000000000002000000074
:10204C000000000000000000000000000000000084
:10205C000400000000000000000010000000000060
:10206C000000000000000000000000000000000064
:10207C000000000000000000000000000000000054
:10208C000000000000000000400000000000000004
:10209C000000000000000000000000000000000034
:1020AC000000000000000000000000000000000024
:1020BC000000000000000000000000000000000014
:1020CC0000000000000000000000E00035003A00B5
:1020DC003B00220023002E0041002D000000420096
:1020EC004C000000000000002B0039003C001700E1
:1020FC001C00300040002F0000002A0000000000EF
:10210C00E100000004001600070009000D000E009D
:10211C000F0033000000310000000000E50000005B
:10212C00290000003D000A000B003F0000003400B5
:10213C00E20044002C0000005200E4001D001B00D3
:10214C0006001900100036003700000000002800BF
:10215C00000000000000000000000000000005006E
:10216C00110000007F003800E600450051004F00D0
:10217C005000000014001A000800150018000C0094
:10218C0012001300000000000000000000003E00E0
:10219C001E001F002000210024002500260027001F
:1021AC0046004300000000000000E000350066001F
:1021BC00F600220023002E0070002D000000E3002A
:1021CC004C000000000000002B003900C700170075
:1021DC001C0030006F002F0000002A0000000000DF
:1021EC00E1000000040016000700090059005A0025
:1021FC005B0056000000310000000000E50000000C
:10220C002900000081000A000B007F000000340050
:10221C00E20049002C0000004B00E4001D001B00F4
:10222C00060019006200360037000000000028008C
:10223C00000000000000000000000000000005008D
:10224C00110000007F005700E60045004E004D00D5
:10225C004A00000014001A00080015005C005D0024
:10226C005E0055000000000000000000000080002F
:10227C001E001F0020002100240025002600540011
:0A228C0053004800000000000000AD
:00000001FF
